{
  "contractName": "Certification",
  "abi": [
    {
      "anonymous": false,
      "inputs": [
        {
          "indexed": false,
          "internalType": "string",
          "name": "certificate_id",
          "type": "string"
        }
      ],
      "name": "certificateGenerated",
      "type": "event"
    },
    {
      "anonymous": false,
      "inputs": [
        {
          "indexed": false,
          "internalType": "string",
          "name": "certificate_id",
          "type": "string"
        }
      ],
      "name": "certificateInvalidated",
      "type": "event"
    },
    {
      "inputs": [
        {
          "internalType": "string",
          "name": "",
          "type": "string"
        }
      ],
      "name": "certificates",
      "outputs": [
        {
          "internalType": "string",
          "name": "registrationNo",
          "type": "string"
        },
        {
          "internalType": "string",
          "name": "candidateName",
          "type": "string"
        },
        {
          "internalType": "string",
          "name": "courseName",
          "type": "string"
        },
        {
          "internalType": "string",
          "name": "institution",
          "type": "string"
        },
        {
          "internalType": "string",
          "name": "ipfsHash",
          "type": "string"
        }
      ],
      "stateMutability": "view",
      "type": "function",
      "constant": true
    },
    {
      "inputs": [
        {
          "internalType": "string",
          "name": "_certificate_id",
          "type": "string"
        },
        {
          "internalType": "string",
          "name": "_registrationNo",
          "type": "string"
        },
        {
          "internalType": "string",
          "name": "_candidateName",
          "type": "string"
        },
        {
          "internalType": "string",
          "name": "_courseName",
          "type": "string"
        },
        {
          "internalType": "string",
          "name": "_institution",
          "type": "string"
        },
        {
          "internalType": "string",
          "name": "_ipfsHash",
          "type": "string"
        }
      ],
      "name": "generateCertificate",
      "outputs": [],
      "stateMutability": "nonpayable",
      "type": "function"
    },
    {
      "inputs": [
        {
          "internalType": "string",
          "name": "certificateId",
          "type": "string"
        }
      ],
      "name": "getCertificate",
      "outputs": [
        {
          "internalType": "string",
          "name": "registrationNo",
          "type": "string"
        },
        {
          "internalType": "string",
          "name": "candidateName",
          "type": "string"
        },
        {
          "internalType": "string",
          "name": "courseName",
          "type": "string"
        },
        {
          "internalType": "string",
          "name": "institution",
          "type": "string"
        },
        {
          "internalType": "string",
          "name": "ipfsHash",
          "type": "string"
        }
      ],
      "stateMutability": "view",
      "type": "function",
      "constant": true
    },
    {
      "inputs": [
        {
          "internalType": "string",
          "name": "_certificate_id",
          "type": "string"
        }
      ],
      "name": "isVerified",
      "outputs": [
        {
          "internalType": "bool",
          "name": "",
          "type": "bool"
        }
      ],
      "stateMutability": "view",
      "type": "function",
      "constant": true
    },
    {
      "inputs": [
        {
          "internalType": "string",
          "name": "_certificate_id",
          "type": "string"
        }
      ],
      "name": "invalidateCertificate",
      "outputs": [],
      "stateMutability": "nonpayable",
      "type": "function"
    },
    {
      "inputs": [
        {
          "internalType": "string",
          "name": "certificateId",
          "type": "string"
        }
      ],
      "name": "certificateExists",
      "outputs": [
        {
          "internalType": "bool",
          "name": "",
          "type": "bool"
        }
      ],
      "stateMutability": "view",
      "type": "function",
      "constant": true
    }
  ],
  "bytecode": "0x608060405234801561001057600080fd5b5061123d806100206000396000f3fe608060405234801561001057600080fd5b50600436106100625760003560e01c80630655f03714610067578063234c76d51461009757806324f349f9146100c7578063627956ae146100e35780638f2b91ea146100ff578063ed0f2e7514610133575b600080fd5b610081600480360381019061007c9190610d5c565b610167565b60405161008e9190610dc0565b60405180910390f35b6100b160048036038101906100ac9190610d5c565b6101a0565b6040516100be9190610dc0565b60405180910390f35b6100e160048036038101906100dc9190610d5c565b6101da565b005b6100fd60048036038101906100f89190610ddb565b6102f4565b005b61011960048036038101906101149190610d5c565b610481565b60405161012a959493929190610f98565b60405180910390f35b61014d60048036038101906101489190610d5c565b610775565b60405161015e959493929190610f98565b60405180910390f35b60008060008360405161017a919061104a565b9081526020016040518091039020600001805461019690611090565b9050119050919050565b6000806000836040516101b3919061104a565b908152602001604051809103902060040180546101cf90611090565b905014159050919050565b600080826040516101eb919061104a565b9081526020016040518091039020600401805461020790611090565b905003610249576040517f08c379a000000000000000000000000000000000000000000000000000000000815260040161024090611133565b60405180910390fd5b600081604051610259919061104a565b9081526020016040518091039020600080820160006102789190610b1f565b6001820160006102889190610b1f565b6002820160006102989190610b1f565b6003820160006102a89190610b1f565b6004820160006102b89190610b1f565b50507f1c002f720e70353021ba800c5769057731fd2a71efaac1b1d6d4d1e6c4de1917816040516102e99190611153565b60405180910390a150565b60008087604051610305919061104a565b9081526020016040518091039020600401805461032190611090565b905014610363576040517f08c379a000000000000000000000000000000000000000000000000000000000815260040161035a906111e7565b60405180910390fd5b60006040518060a001604052808781526020018681526020018581526020018481526020018381525090508060008860405161039f919061104a565b908152602001604051809103902060008201518160000190805190602001906103c9929190610b5f565b5060208201518160010190805190602001906103e6929190610b5f565b506040820151816002019080519060200190610403929190610b5f565b506060820151816003019080519060200190610420929190610b5f565b50608082015181600401908051906020019061043d929190610b5f565b509050507f267fae70dc2912ede5096795f49d41fac472461a02e4f8703eceee0e785bbd1d876040516104709190611153565b60405180910390a150505050505050565b6000818051602081018201805184825260208301602085012081835280955050505050506000915090508060000180546104ba90611090565b80601f01602080910402602001604051908101604052809291908181526020018280546104e690611090565b80156105335780601f1061050857610100808354040283529160200191610533565b820191906000526020600020905b81548152906001019060200180831161051657829003601f168201915b50505050509080600101805461054890611090565b80601f016020809104026020016040519081016040528092919081815260200182805461057490611090565b80156105c15780601f10610596576101008083540402835291602001916105c1565b820191906000526020600020905b8154815290600101906020018083116105a457829003601f168201915b5050505050908060020180546105d690611090565b80601f016020809104026020016040519081016040528092919081815260200182805461060290611090565b801561064f5780601f106106245761010080835404028352916020019161064f565b820191906000526020600020905b81548152906001019060200180831161063257829003601f168201915b50505050509080600301805461066490611090565b80601f016020809104026020016040519081016040528092919081815260200182805461069090611090565b80156106dd5780601f106106b2576101008083540402835291602001916106dd565b820191906000526020600020905b8154815290600101906020018083116106c057829003601f168201915b5050505050908060040180546106f290611090565b80601f016020809104026020016040519081016040528092919081815260200182805461071e90611090565b801561076b5780601f106107405761010080835404028352916020019161076b565b820191906000526020600020905b81548152906001019060200180831161074e57829003601f168201915b5050505050905085565b60608060608060606000808760405161078e919061104a565b908152602001604051809103902060000180546107aa90611090565b9050116107ec576040517f08c379a00000000000000000000000000000000000000000000000000000000081526004016107e390611133565b60405180910390fd5b600080876040516107fd919061104a565b90815260200160405180910390206040518060a001604052908160008201805461082690611090565b80601f016020809104026020016040519081016040528092919081815260200182805461085290611090565b801561089f5780601f106108745761010080835404028352916020019161089f565b820191906000526020600020905b81548152906001019060200180831161088257829003601f168201915b505050505081526020016001820180546108b890611090565b80601f01602080910402602001604051908101604052809291908181526020018280546108e490611090565b80156109315780601f1061090657610100808354040283529160200191610931565b820191906000526020600020905b81548152906001019060200180831161091457829003601f168201915b5050505050815260200160028201805461094a90611090565b80601f016020809104026020016040519081016040528092919081815260200182805461097690611090565b80156109c35780601f10610998576101008083540402835291602001916109c3565b820191906000526020600020905b8154815290600101906020018083116109a657829003601f168201915b505050505081526020016003820180546109dc90611090565b80601f0160208091040260200160405190810160405280929190818152602001828054610a0890611090565b8015610a555780601f10610a2a57610100808354040283529160200191610a55565b820191906000526020600020905b815481529060010190602001808311610a3857829003601f168201915b50505050508152602001600482018054610a6e90611090565b80601f0160208091040260200160405190810160405280929190818152602001828054610a9a90611090565b8015610ae75780601f10610abc57610100808354040283529160200191610ae7565b820191906000526020600020905b815481529060010190602001808311610aca57829003601f168201915b505050505081525050905080600001518160200151826040015183606001518460800151955095509550955095505091939590929450565b508054610b2b90611090565b6000825580601f10610b3d5750610b5c565b601f016020900490600052602060002090810190610b5b9190610be5565b5b50565b828054610b6b90611090565b90600052602060002090601f016020900481019282610b8d5760008555610bd4565b82601f10610ba657805160ff1916838001178555610bd4565b82800160010185558215610bd4579182015b82811115610bd3578251825591602001919060010190610bb8565b5b509050610be19190610be5565b5090565b5b80821115610bfe576000816000905550600101610be6565b5090565b6000604051905090565b600080fd5b600080fd5b600080fd5b600080fd5b6000601f19601f8301169050919050565b7f4e487b7100000000000000000000000000000000000000000000000000000000600052604160045260246000fd5b610c6982610c20565b810181811067ffffffffffffffff82111715610c8857610c87610c31565b5b80604052505050565b6000610c9b610c02565b9050610ca78282610c60565b919050565b600067ffffffffffffffff821115610cc757610cc6610c31565b5b610cd082610c20565b9050602081019050919050565b82818337600083830152505050565b6000610cff610cfa84610cac565b610c91565b905082815260208101848484011115610d1b57610d1a610c1b565b5b610d26848285610cdd565b509392505050565b600082601f830112610d4357610d42610c16565b5b8135610d53848260208601610cec565b91505092915050565b600060208284031215610d7257610d71610c0c565b5b600082013567ffffffffffffffff811115610d9057610d8f610c11565b5b610d9c84828501610d2e565b91505092915050565b60008115159050919050565b610dba81610da5565b82525050565b6000602082019050610dd56000830184610db1565b92915050565b60008060008060008060c08789031215610df857610df7610c0c565b5b600087013567ffffffffffffffff811115610e1657610e15610c11565b5b610e2289828a01610d2e565b965050602087013567ffffffffffffffff811115610e4357610e42610c11565b5b610e4f89828a01610d2e565b955050604087013567ffffffffffffffff811115610e7057610e6f610c11565b5b610e7c89828a01610d2e565b945050606087013567ffffffffffffffff811115610e9d57610e9c610c11565b5b610ea989828a01610d2e565b935050608087013567ffffffffffffffff811115610eca57610ec9610c11565b5b610ed689828a01610d2e565b92505060a087013567ffffffffffffffff811115610ef757610ef6610c11565b5b610f0389828a01610d2e565b9150509295509295509295565b600081519050919050565b600082825260208201905092915050565b60005b83811015610f4a578082015181840152602081019050610f2f565b83811115610f59576000848401525b50505050565b6000610f6a82610f10565b610f748185610f1b565b9350610f84818560208601610f2c565b610f8d81610c20565b840191505092915050565b600060a0820190508181036000830152610fb28188610f5f565b90508181036020830152610fc68187610f5f565b90508181036040830152610fda8186610f5f565b90508181036060830152610fee8185610f5f565b905081810360808301526110028184610f5f565b90509695505050505050565b600081905092915050565b600061102482610f10565b61102e818561100e565b935061103e818560208601610f2c565b80840191505092915050565b60006110568284611019565b915081905092915050565b7f4e487b7100000000000000000000000000000000000000000000000000000000600052602260045260246000fd5b600060028204905060018216806110a857607f821691505b6020821081036110bb576110ba611061565b5b50919050565b7f43657274696669636174652077697468207468697320494420646f6573206e6f60008201527f7420657869737400000000000000000000000000000000000000000000000000602082015250565b600061111d602783610f1b565b9150611128826110c1565b604082019050919050565b6000602082019050818103600083015261114c81611110565b9050919050565b6000602082019050818103600083015261116d8184610f5f565b905092915050565b7f43657274696669636174652077697468207468697320494420616c726561647960008201527f2065786973747300000000000000000000000000000000000000000000000000602082015250565b60006111d1602783610f1b565b91506111dc82611175565b604082019050919050565b60006020820190508181036000830152611200816111c4565b905091905056fea26469706673582212200017562e3bb63aa65099ba33e59849d74c6fe25775ac4b73730e8fbe813bf52464736f6c634300080d0033",
  "immutableReferences": {},
  "source": "// SPDX-License-Identifier: MIT\npragma solidity ^0.8.13;\n\ncontract Certification {\n    struct Certificate {\n        string registrationNo;      // Changed from Registration_No\n        string candidateName;       // Changed from candidate_name\n        string courseName;          // Changed from course_name\n        string institution;         // Changed from Institution\n        string ipfsHash;           // Changed from ipfs_hash\n    }\n\n    mapping(string => Certificate) public certificates;\n    event certificateGenerated(string certificate_id);\n    event certificateInvalidated(string certificate_id);\n\n    function generateCertificate(\n        string memory _certificate_id,\n        string memory _registrationNo,    // Changed parameter name\n        string memory _candidateName,     // Changed parameter name\n        string memory _courseName,        // Changed parameter name\n        string memory _institution,       // Changed parameter name\n        string memory _ipfsHash          // Changed parameter name\n    ) public {\n        // Check if certificate with the given ID already exists\n        require(\n            bytes(certificates[_certificate_id].ipfsHash).length == 0,\n            \"Certificate with this ID already exists\"\n        );\n\n        // Create the certificate\n        Certificate memory cert = Certificate({\n            registrationNo: _registrationNo,\n            candidateName: _candidateName,\n            courseName: _courseName,\n            institution: _institution,\n            ipfsHash: _ipfsHash\n        });\n\n        // Store the certificate in the mapping\n        certificates[_certificate_id] = cert;\n\n        // Emit an event\n        emit certificateGenerated(_certificate_id);\n    }\n\n    function getCertificate(string memory certificateId) public view returns (\n        string memory registrationNo,\n        string memory candidateName,\n        string memory courseName,\n        string memory institution,\n        string memory ipfsHash\n    ) {\n        require(bytes(certificates[certificateId].registrationNo).length > 0, \"Certificate with this ID does not exist\");\n        Certificate memory cert = certificates[certificateId];\n        return (\n            cert.registrationNo,\n            cert.candidateName,\n            cert.courseName,\n            cert.institution,\n            cert.ipfsHash\n        );\n    }\n\n    function isVerified(\n        string memory _certificate_id\n    ) public view returns (bool) {\n        return bytes(certificates[_certificate_id].ipfsHash).length != 0;\n    }\n\n    function invalidateCertificate(string memory _certificate_id) public {\n        // Check if the certificate with the given ID exists\n        require(\n            bytes(certificates[_certificate_id].ipfsHash).length != 0,\n            \"Certificate with this ID does not exist\"\n        );\n\n        // Invalidate the certificate\n        delete certificates[_certificate_id];\n\n        // Emit an event\n        emit certificateInvalidated(_certificate_id);\n    }\n\n    function certificateExists(string memory certificateId) public view returns (bool) {\n        return bytes(certificates[certificateId].registrationNo).length > 0;\n    }\n}\n",
  "sourcePath": "C:\\Users\\AlxTexh\\Documents\\Project\\BCV\\contracts\\Certification.sol",
  "compiler": {
    "name": "solc",
    "version": "0.8.13+commit.abaa5c0e.Emscripten.clang"
  },
  "schemaVersion": "3.4.16",
  "updatedAt": "2025-03-07T18:46:29.523Z",
  "networkType": "ethereum",
  "devdoc": {
    "kind": "dev",
    "methods": {},
    "version": 1
  },
  "userdoc": {
    "kind": "user",
    "methods": {},
    "version": 1
  }
}